{
  "_format": "hh-sol-artifact-1",
  "contractName": "MarketForOffchainPayment",
  "sourceName": "contracts/MarketForOffchainPayment.sol",
  "abi": [
    {
      "inputs": [
        {
          "internalType": "contract IAccessControl",
          "name": "_roleManagerStore",
          "type": "address"
        }
      ],
      "stateMutability": "nonpayable",
      "type": "constructor"
    },
    {
      "anonymous": false,
      "inputs": [
        {
          "indexed": true,
          "internalType": "bytes32",
          "name": "role",
          "type": "bytes32"
        },
        {
          "indexed": true,
          "internalType": "bytes32",
          "name": "previousAdminRole",
          "type": "bytes32"
        },
        {
          "indexed": true,
          "internalType": "bytes32",
          "name": "newAdminRole",
          "type": "bytes32"
        }
      ],
      "name": "RoleAdminChanged",
      "type": "event"
    },
    {
      "anonymous": false,
      "inputs": [
        {
          "indexed": true,
          "internalType": "bytes32",
          "name": "role",
          "type": "bytes32"
        },
        {
          "indexed": true,
          "internalType": "address",
          "name": "account",
          "type": "address"
        },
        {
          "indexed": true,
          "internalType": "address",
          "name": "sender",
          "type": "address"
        }
      ],
      "name": "RoleGranted",
      "type": "event"
    },
    {
      "anonymous": false,
      "inputs": [
        {
          "indexed": true,
          "internalType": "bytes32",
          "name": "role",
          "type": "bytes32"
        },
        {
          "indexed": true,
          "internalType": "address",
          "name": "account",
          "type": "address"
        },
        {
          "indexed": true,
          "internalType": "address",
          "name": "sender",
          "type": "address"
        }
      ],
      "name": "RoleRevoked",
      "type": "event"
    },
    {
      "inputs": [
        {
          "internalType": "bytes32",
          "name": "role",
          "type": "bytes32"
        }
      ],
      "name": "getRoleAdmin",
      "outputs": [
        {
          "internalType": "bytes32",
          "name": "",
          "type": "bytes32"
        }
      ],
      "stateMutability": "view",
      "type": "function"
    },
    {
      "inputs": [
        {
          "internalType": "bytes32",
          "name": "role",
          "type": "bytes32"
        },
        {
          "internalType": "address",
          "name": "account",
          "type": "address"
        }
      ],
      "name": "grantRole",
      "outputs": [],
      "stateMutability": "nonpayable",
      "type": "function"
    },
    {
      "inputs": [
        {
          "internalType": "bytes32",
          "name": "role",
          "type": "bytes32"
        },
        {
          "internalType": "address",
          "name": "account",
          "type": "address"
        }
      ],
      "name": "hasRole",
      "outputs": [
        {
          "internalType": "bool",
          "name": "",
          "type": "bool"
        }
      ],
      "stateMutability": "view",
      "type": "function"
    },
    {
      "inputs": [
        {
          "internalType": "bytes32",
          "name": "role",
          "type": "bytes32"
        },
        {
          "internalType": "address",
          "name": "account",
          "type": "address"
        }
      ],
      "name": "renounceRole",
      "outputs": [],
      "stateMutability": "nonpayable",
      "type": "function"
    },
    {
      "inputs": [
        {
          "internalType": "bytes32",
          "name": "role",
          "type": "bytes32"
        },
        {
          "internalType": "address",
          "name": "account",
          "type": "address"
        }
      ],
      "name": "revokeRole",
      "outputs": [],
      "stateMutability": "nonpayable",
      "type": "function"
    },
    {
      "inputs": [
        {
          "internalType": "address",
          "name": "erc721WithPermitContractAddress",
          "type": "address"
        },
        {
          "internalType": "address",
          "name": "from",
          "type": "address"
        },
        {
          "internalType": "address",
          "name": "to",
          "type": "address"
        },
        {
          "internalType": "uint256",
          "name": "tokenId",
          "type": "uint256"
        },
        {
          "internalType": "uint256",
          "name": "nonce",
          "type": "uint256"
        },
        {
          "internalType": "uint256",
          "name": "deadline",
          "type": "uint256"
        },
        {
          "internalType": "uint8",
          "name": "v",
          "type": "uint8"
        },
        {
          "internalType": "bytes32",
          "name": "r",
          "type": "bytes32"
        },
        {
          "internalType": "bytes32",
          "name": "s",
          "type": "bytes32"
        }
      ],
      "name": "transferForTokenManager",
      "outputs": [],
      "stateMutability": "nonpayable",
      "type": "function"
    }
  ],
  "bytecode": "0x608060405234801561001057600080fd5b50604051610a91380380610a9183398101604081905261002f91610054565b600080546001600160a01b0319166001600160a01b0392909216919091179055610084565b60006020828403121561006657600080fd5b81516001600160a01b038116811461007d57600080fd5b9392505050565b6109fe806100936000396000f3fe608060405234801561001057600080fd5b50600436106100725760003560e01c806391d148541161005057806391d14854146100c5578063ae5b9e97146100e8578063d547741f146100fb57600080fd5b8063248a9ca3146100775780632f2ff15d1461009d57806336568abe146100b2575b600080fd5b61008a610085366004610729565b61010e565b6040519081526020015b60405180910390f35b6100b06100ab36600461075e565b6101aa565b005b6100b06100c036600461075e565b61022e565b6100d86100d336600461075e565b610280565b6040519015158152602001610094565b6100b06100f636600461078a565b610325565b6100b061010936600461075e565b6104e4565b600080546040517f248a9ca3000000000000000000000000000000000000000000000000000000008152600481018490526001600160a01b039091169063248a9ca39060240160206040518083038186803b15801561016c57600080fd5b505afa158015610180573d6000803e3d6000fd5b505050506040513d601f19601f820116820180604052508101906101a49190610819565b92915050565b6000546040517f2f2ff15d000000000000000000000000000000000000000000000000000000008152600481018490526001600160a01b03838116602483015290911690632f2ff15d906044015b600060405180830381600087803b15801561021257600080fd5b505af1158015610226573d6000803e3d6000fd5b505050505050565b6000546040517f36568abe000000000000000000000000000000000000000000000000000000008152600481018490526001600160a01b038381166024830152909116906336568abe906044016101f8565b600080546040517f91d14854000000000000000000000000000000000000000000000000000000008152600481018590526001600160a01b038481166024830152909116906391d148549060440160206040518083038186803b1580156102e657600080fd5b505afa1580156102fa573d6000803e3d6000fd5b505050506040513d601f19601f8201168201806040525081019061031e9190610832565b9392505050565b7f74f7a545c65c11839a48d7453738b30c295408df2d944516167556759ddc6d06336103518282610280565b6103a95761035e81610536565b610369836020610548565b60405160200161037a929190610884565b60408051601f198184030181529082905262461bcd60e51b82526103a091600401610905565b60405180910390fd5b6040517f856048a90000000000000000000000000000000000000000000000000000000081526001600160a01b038b81166004830152306024830152604482018a9052606482018990526084820188905260ff871660a483015260c4820186905260e482018590528c919082169063856048a99061010401600060405180830381600087803b15801561043b57600080fd5b505af115801561044f573d6000803e3d6000fd5b50506040517f23b872dd0000000000000000000000000000000000000000000000000000000081526001600160a01b038e811660048301528d81166024830152604482018d9052841692506323b872dd9150606401600060405180830381600087803b1580156104be57600080fd5b505af11580156104d2573d6000803e3d6000fd5b50505050505050505050505050505050565b6000546040517fd547741f000000000000000000000000000000000000000000000000000000008152600481018490526001600160a01b0383811660248301529091169063d547741f906044016101f8565b60606101a46001600160a01b03831660145b6060600061055783600261094e565b61056290600261096d565b67ffffffffffffffff81111561057a5761057a610985565b6040519080825280601f01601f1916602001820160405280156105a4576020820181803683370190505b5090507f3000000000000000000000000000000000000000000000000000000000000000816000815181106105db576105db61099b565b60200101906001600160f81b031916908160001a9053507f7800000000000000000000000000000000000000000000000000000000000000816001815181106106265761062661099b565b60200101906001600160f81b031916908160001a905350600061064a84600261094e565b61065590600161096d565b90505b60018111156106da577f303132333435363738396162636465660000000000000000000000000000000085600f16601081106106965761069661099b565b1a60f81b8282815181106106ac576106ac61099b565b60200101906001600160f81b031916908160001a90535060049490941c936106d3816109b1565b9050610658565b50831561031e5760405162461bcd60e51b815260206004820181905260248201527f537472696e67733a20686578206c656e67746820696e73756666696369656e7460448201526064016103a0565b60006020828403121561073b57600080fd5b5035919050565b80356001600160a01b038116811461075957600080fd5b919050565b6000806040838503121561077157600080fd5b8235915061078160208401610742565b90509250929050565b60008060008060008060008060006101208a8c0312156107a957600080fd5b6107b28a610742565b98506107c060208b01610742565b97506107ce60408b01610742565b965060608a0135955060808a0135945060a08a0135935060c08a013560ff811681146107f957600080fd5b8093505060e08a013591506101008a013590509295985092959850929598565b60006020828403121561082b57600080fd5b5051919050565b60006020828403121561084457600080fd5b8151801515811461031e57600080fd5b60005b8381101561086f578181015183820152602001610857565b8381111561087e576000848401525b50505050565b7f416363657373436f6e74726f6c3a206163636f756e74200000000000000000008152600083516108bc816017850160208801610854565b7f206973206d697373696e6720726f6c652000000000000000000000000000000060179184019182015283516108f9816028840160208801610854565b01602801949350505050565b6020815260008251806020840152610924816040850160208701610854565b601f01601f19169190910160400192915050565b634e487b7160e01b600052601160045260246000fd5b600081600019048311821515161561096857610968610938565b500290565b6000821982111561098057610980610938565b500190565b634e487b7160e01b600052604160045260246000fd5b634e487b7160e01b600052603260045260246000fd5b6000816109c0576109c0610938565b50600019019056fea2646970667358221220d42997b2bd7b904ab9c43ebea10aa93e9c8ca324d900bfd12d873bd91cdc4f0764736f6c63430008090033",
  "linkReferences": {},
  "deployedLinkReferences": {}
}