{
  "_format": "hh-sol-artifact-1",
  "contractName": "RoleManagerStore",
  "sourceName": "contracts/RoleManagerStore.sol",
  "abi": [
    {
      "inputs": [
        {
          "internalType": "address",
          "name": "_admin",
          "type": "address"
        },
        {
          "internalType": "address",
          "name": "_operator",
          "type": "address"
        },
        {
          "internalType": "address",
          "name": "_tokenManager",
          "type": "address"
        }
      ],
      "stateMutability": "nonpayable",
      "type": "constructor"
    },
    {
      "anonymous": false,
      "inputs": [
        {
          "indexed": true,
          "internalType": "bytes32",
          "name": "role",
          "type": "bytes32"
        },
        {
          "indexed": true,
          "internalType": "bytes32",
          "name": "previousAdminRole",
          "type": "bytes32"
        },
        {
          "indexed": true,
          "internalType": "bytes32",
          "name": "newAdminRole",
          "type": "bytes32"
        }
      ],
      "name": "RoleAdminChanged",
      "type": "event"
    },
    {
      "anonymous": false,
      "inputs": [
        {
          "indexed": true,
          "internalType": "bytes32",
          "name": "role",
          "type": "bytes32"
        },
        {
          "indexed": true,
          "internalType": "address",
          "name": "account",
          "type": "address"
        },
        {
          "indexed": true,
          "internalType": "address",
          "name": "sender",
          "type": "address"
        }
      ],
      "name": "RoleGranted",
      "type": "event"
    },
    {
      "anonymous": false,
      "inputs": [
        {
          "indexed": true,
          "internalType": "bytes32",
          "name": "role",
          "type": "bytes32"
        },
        {
          "indexed": true,
          "internalType": "address",
          "name": "account",
          "type": "address"
        },
        {
          "indexed": true,
          "internalType": "address",
          "name": "sender",
          "type": "address"
        }
      ],
      "name": "RoleRevoked",
      "type": "event"
    },
    {
      "inputs": [],
      "name": "DEFAULT_ADMIN_ROLE",
      "outputs": [
        {
          "internalType": "bytes32",
          "name": "",
          "type": "bytes32"
        }
      ],
      "stateMutability": "view",
      "type": "function"
    },
    {
      "inputs": [
        {
          "internalType": "bytes32",
          "name": "role",
          "type": "bytes32"
        }
      ],
      "name": "checkRole",
      "outputs": [],
      "stateMutability": "view",
      "type": "function"
    },
    {
      "inputs": [
        {
          "internalType": "bytes32",
          "name": "role",
          "type": "bytes32"
        }
      ],
      "name": "getRoleAdmin",
      "outputs": [
        {
          "internalType": "bytes32",
          "name": "",
          "type": "bytes32"
        }
      ],
      "stateMutability": "view",
      "type": "function"
    },
    {
      "inputs": [
        {
          "internalType": "bytes32",
          "name": "role",
          "type": "bytes32"
        },
        {
          "internalType": "address",
          "name": "account",
          "type": "address"
        }
      ],
      "name": "grantRole",
      "outputs": [],
      "stateMutability": "nonpayable",
      "type": "function"
    },
    {
      "inputs": [
        {
          "internalType": "bytes32",
          "name": "role",
          "type": "bytes32"
        },
        {
          "internalType": "address",
          "name": "account",
          "type": "address"
        }
      ],
      "name": "hasRole",
      "outputs": [
        {
          "internalType": "bool",
          "name": "",
          "type": "bool"
        }
      ],
      "stateMutability": "view",
      "type": "function"
    },
    {
      "inputs": [
        {
          "internalType": "address",
          "name": "account",
          "type": "address"
        }
      ],
      "name": "removeOperator",
      "outputs": [],
      "stateMutability": "nonpayable",
      "type": "function"
    },
    {
      "inputs": [
        {
          "internalType": "address",
          "name": "account",
          "type": "address"
        }
      ],
      "name": "removeTokenManager",
      "outputs": [],
      "stateMutability": "nonpayable",
      "type": "function"
    },
    {
      "inputs": [
        {
          "internalType": "bytes32",
          "name": "role",
          "type": "bytes32"
        },
        {
          "internalType": "address",
          "name": "account",
          "type": "address"
        }
      ],
      "name": "renounceRole",
      "outputs": [],
      "stateMutability": "nonpayable",
      "type": "function"
    },
    {
      "inputs": [
        {
          "internalType": "bytes32",
          "name": "role",
          "type": "bytes32"
        },
        {
          "internalType": "address",
          "name": "account",
          "type": "address"
        }
      ],
      "name": "revokeRole",
      "outputs": [],
      "stateMutability": "nonpayable",
      "type": "function"
    },
    {
      "inputs": [
        {
          "internalType": "address",
          "name": "account",
          "type": "address"
        }
      ],
      "name": "setOperator",
      "outputs": [],
      "stateMutability": "nonpayable",
      "type": "function"
    },
    {
      "inputs": [
        {
          "internalType": "address",
          "name": "account",
          "type": "address"
        }
      ],
      "name": "setTokenManager",
      "outputs": [],
      "stateMutability": "nonpayable",
      "type": "function"
    },
    {
      "inputs": [
        {
          "internalType": "bytes4",
          "name": "interfaceId",
          "type": "bytes4"
        }
      ],
      "name": "supportsInterface",
      "outputs": [
        {
          "internalType": "bool",
          "name": "",
          "type": "bool"
        }
      ],
      "stateMutability": "view",
      "type": "function"
    }
  ],
  "bytecode": "0x608060405234801561001057600080fd5b5060405162000c8f38038062000c8f83398101604081905261003191610160565b61003c600084610098565b6100667f74f7a545c65c11839a48d7453738b30c295408df2d944516167556759ddc6d0682610098565b6100907f97667070c54ef182b0f5858b034beac1b6f3089aa2d3188bb1e8929f4fa9b92983610098565b5050506101a3565b6100a282826100a6565b5050565b6000828152602081815260408083206001600160a01b038516845290915290205460ff166100a2576000828152602081815260408083206001600160a01b03851684529091529020805460ff191660011790556101003390565b6001600160a01b0316816001600160a01b0316837f2f8788117e7eff1d82e926ec794901d17c78024a50270940304540a733656f0d60405160405180910390a45050565b80516001600160a01b038116811461015b57600080fd5b919050565b60008060006060848603121561017557600080fd5b61017e84610144565b925061018c60208501610144565b915061019a60408501610144565b90509250925092565b610adc80620001b36000396000f3fe608060405234801561001057600080fd5b50600436106100d45760003560e01c8063a217fddf11610081578063b9727f961161005b578063b9727f96146101d2578063c5b95190146101e5578063d547741f146101f857600080fd5b8063a217fddf146101a4578063ac8a584a146101ac578063b3ab15fb146101bf57600080fd5b806336568abe116100b257806336568abe146101475780637cb2b79c1461015a57806391d148541461016d57600080fd5b806301ffc9a7146100d9578063248a9ca3146101015780632f2ff15d14610132575b600080fd5b6100ec6100e7366004610874565b61020b565b60405190151581526020015b60405180910390f35b61012461010f3660046108b6565b60009081526020819052604090206001015490565b6040519081526020016100f8565b6101456101403660046108eb565b6102a4565b005b6101456101553660046108eb565b6102ce565b610145610168366004610917565b61035f565b6100ec61017b3660046108eb565b6000918252602082815260408084206001600160a01b0393909316845291905290205460ff1690565b610124600081565b6101456101ba366004610917565b6103b3565b6101456101cd366004610917565b610407565b6101456101e0366004610917565b61045b565b6101456101f33660046108b6565b6104af565b6101456102063660046108eb565b6104bb565b60007fffffffff0000000000000000000000000000000000000000000000000000000082167f7965db0b00000000000000000000000000000000000000000000000000000000148061029e57507f01ffc9a7000000000000000000000000000000000000000000000000000000007fffffffff000000000000000000000000000000000000000000000000000000008316145b92915050565b6000828152602081905260409020600101546102bf816104e0565b6102c983836104ea565b505050565b6001600160a01b03811633146103515760405162461bcd60e51b815260206004820152602f60248201527f416363657373436f6e74726f6c3a2063616e206f6e6c792072656e6f756e636560448201527f20726f6c657320666f722073656c66000000000000000000000000000000000060648201526084015b60405180910390fd5b61035b8282610588565b5050565b7f97667070c54ef182b0f5858b034beac1b6f3089aa2d3188bb1e8929f4fa9b929610389816104e0565b61035b7f74f7a545c65c11839a48d7453738b30c295408df2d944516167556759ddc6d06836104ea565b7f97667070c54ef182b0f5858b034beac1b6f3089aa2d3188bb1e8929f4fa9b9296103dd816104e0565b61035b7f97667070c54ef182b0f5858b034beac1b6f3089aa2d3188bb1e8929f4fa9b92983610588565b7f97667070c54ef182b0f5858b034beac1b6f3089aa2d3188bb1e8929f4fa9b929610431816104e0565b61035b7f97667070c54ef182b0f5858b034beac1b6f3089aa2d3188bb1e8929f4fa9b929836104ea565b7f97667070c54ef182b0f5858b034beac1b6f3089aa2d3188bb1e8929f4fa9b929610485816104e0565b61035b7f74f7a545c65c11839a48d7453738b30c295408df2d944516167556759ddc6d0683610588565b6104b8816104e0565b50565b6000828152602081905260409020600101546104d6816104e0565b6102c98383610588565b6104b88133610607565b6000828152602081815260408083206001600160a01b038516845290915290205460ff1661035b576000828152602081815260408083206001600160a01b03851684529091529020805460ff191660011790556105443390565b6001600160a01b0316816001600160a01b0316837f2f8788117e7eff1d82e926ec794901d17c78024a50270940304540a733656f0d60405160405180910390a45050565b6000828152602081815260408083206001600160a01b038516845290915290205460ff161561035b576000828152602081815260408083206001600160a01b0385168085529252808320805460ff1916905551339285917ff6391f5c32d9c69d2a47ea670b442974b53935d1edc7fd64eb21e047a839171b9190a45050565b6000828152602081815260408083206001600160a01b038516845290915290205460ff1661035b576106388161067a565b61064383602061068c565b604051602001610654929190610962565b60408051601f198184030181529082905262461bcd60e51b8252610348916004016109e3565b606061029e6001600160a01b03831660145b6060600061069b836002610a2c565b6106a6906002610a4b565b67ffffffffffffffff8111156106be576106be610a63565b6040519080825280601f01601f1916602001820160405280156106e8576020820181803683370190505b5090507f30000000000000000000000000000000000000000000000000000000000000008160008151811061071f5761071f610a79565b60200101906001600160f81b031916908160001a9053507f78000000000000000000000000000000000000000000000000000000000000008160018151811061076a5761076a610a79565b60200101906001600160f81b031916908160001a905350600061078e846002610a2c565b610799906001610a4b565b90505b600181111561081e577f303132333435363738396162636465660000000000000000000000000000000085600f16601081106107da576107da610a79565b1a60f81b8282815181106107f0576107f0610a79565b60200101906001600160f81b031916908160001a90535060049490941c9361081781610a8f565b905061079c565b50831561086d5760405162461bcd60e51b815260206004820181905260248201527f537472696e67733a20686578206c656e67746820696e73756666696369656e746044820152606401610348565b9392505050565b60006020828403121561088657600080fd5b81357fffffffff000000000000000000000000000000000000000000000000000000008116811461086d57600080fd5b6000602082840312156108c857600080fd5b5035919050565b80356001600160a01b03811681146108e657600080fd5b919050565b600080604083850312156108fe57600080fd5b8235915061090e602084016108cf565b90509250929050565b60006020828403121561092957600080fd5b61086d826108cf565b60005b8381101561094d578181015183820152602001610935565b8381111561095c576000848401525b50505050565b7f416363657373436f6e74726f6c3a206163636f756e742000000000000000000081526000835161099a816017850160208801610932565b7f206973206d697373696e6720726f6c652000000000000000000000000000000060179184019182015283516109d7816028840160208801610932565b01602801949350505050565b6020815260008251806020840152610a02816040850160208701610932565b601f01601f19169190910160400192915050565b634e487b7160e01b600052601160045260246000fd5b6000816000190483118215151615610a4657610a46610a16565b500290565b60008219821115610a5e57610a5e610a16565b500190565b634e487b7160e01b600052604160045260246000fd5b634e487b7160e01b600052603260045260246000fd5b600081610a9e57610a9e610a16565b50600019019056fea26469706673582212203f3e2a984ea0380e865a928e8cddcd6adcfc49101e99f77faa8bfb58c6f4841b64736f6c63430008090033",
  "linkReferences": {},
  "deployedLinkReferences": {}
}