{
  "_format": "hh-sol-artifact-1",
  "contractName": "Role",
  "sourceName": "contracts/lib/Role.sol",
  "abi": [
    {
      "inputs": [],
      "name": "OPERATOR_ROLE",
      "outputs": [
        {
          "internalType": "bytes32",
          "name": "",
          "type": "bytes32"
        }
      ],
      "stateMutability": "view",
      "type": "function"
    },
    {
      "inputs": [],
      "name": "TOKEN_MANAGER_ROLE",
      "outputs": [
        {
          "internalType": "bytes32",
          "name": "",
          "type": "bytes32"
        }
      ],
      "stateMutability": "view",
      "type": "function"
    }
  ],
  "bytecode": "0x60d6610039600b82828239805160001a60731461002c57634e487b7160e01b600052600060045260246000fd5b30600052607381538281f3fe7300000000000000000000000000000000000000003014608060405260043610603d5760003560e01c8063c2840e60146042578063f5b541a614607a575b600080fd5b60687f74f7a545c65c11839a48d7453738b30c295408df2d944516167556759ddc6d0681565b60405190815260200160405180910390f35b60687f97667070c54ef182b0f5858b034beac1b6f3089aa2d3188bb1e8929f4fa9b9298156fea2646970667358221220b6bedbe5999cca1d3252a1f4939e6c3003bc413b4e46285922263895a728bbf764736f6c63430008090033",
  "linkReferences": {},
  "deployedLinkReferences": {}
}